{
  "_format": "hh-sol-artifact-1",
  "contractName": "Collection",
  "sourceName": "contracts/Collection.sol",
  "abi": [
    {
      "inputs": [],
      "stateMutability": "nonpayable",
      "type": "constructor"
    },
    {
      "anonymous": false,
      "inputs": [
        {
          "indexed": true,
          "internalType": "address",
          "name": "owner",
          "type": "address"
        },
        {
          "indexed": true,
          "internalType": "address",
          "name": "approved",
          "type": "address"
        },
        {
          "indexed": true,
          "internalType": "uint256",
          "name": "tokenId",
          "type": "uint256"
        }
      ],
      "name": "Approval",
      "type": "event"
    },
    {
      "anonymous": false,
      "inputs": [
        {
          "indexed": true,
          "internalType": "address",
          "name": "owner",
          "type": "address"
        },
        {
          "indexed": true,
          "internalType": "address",
          "name": "operator",
          "type": "address"
        },
        {
          "indexed": false,
          "internalType": "bool",
          "name": "approved",
          "type": "bool"
        }
      ],
      "name": "ApprovalForAll",
      "type": "event"
    },
    {
      "anonymous": false,
      "inputs": [
        {
          "indexed": false,
          "internalType": "uint256",
          "name": "_fromTokenId",
          "type": "uint256"
        },
        {
          "indexed": false,
          "internalType": "uint256",
          "name": "_toTokenId",
          "type": "uint256"
        }
      ],
      "name": "BatchMetadataUpdate",
      "type": "event"
    },
    {
      "anonymous": false,
      "inputs": [
        {
          "indexed": false,
          "internalType": "uint256",
          "name": "_tokenId",
          "type": "uint256"
        }
      ],
      "name": "MetadataUpdate",
      "type": "event"
    },
    {
      "anonymous": false,
      "inputs": [
        {
          "indexed": true,
          "internalType": "address",
          "name": "previousOwner",
          "type": "address"
        },
        {
          "indexed": true,
          "internalType": "address",
          "name": "newOwner",
          "type": "address"
        }
      ],
      "name": "OwnershipTransferred",
      "type": "event"
    },
    {
      "anonymous": false,
      "inputs": [
        {
          "indexed": true,
          "internalType": "address",
          "name": "from",
          "type": "address"
        },
        {
          "indexed": true,
          "internalType": "address",
          "name": "to",
          "type": "address"
        },
        {
          "indexed": true,
          "internalType": "uint256",
          "name": "tokenId",
          "type": "uint256"
        }
      ],
      "name": "Transfer",
      "type": "event"
    },
    {
      "inputs": [],
      "name": "LIMIT_PER_ADDRESS",
      "outputs": [
        {
          "internalType": "uint256",
          "name": "",
          "type": "uint256"
        }
      ],
      "stateMutability": "view",
      "type": "function"
    },
    {
      "inputs": [],
      "name": "MAX_SUPPLY",
      "outputs": [
        {
          "internalType": "uint256",
          "name": "",
          "type": "uint256"
        }
      ],
      "stateMutability": "view",
      "type": "function"
    },
    {
      "inputs": [],
      "name": "PRICE_PER_TOKEN",
      "outputs": [
        {
          "internalType": "uint256",
          "name": "",
          "type": "uint256"
        }
      ],
      "stateMutability": "view",
      "type": "function"
    },
    {
      "inputs": [
        {
          "internalType": "address",
          "name": "to",
          "type": "address"
        },
        {
          "internalType": "uint256",
          "name": "tokenId",
          "type": "uint256"
        }
      ],
      "name": "approve",
      "outputs": [],
      "stateMutability": "nonpayable",
      "type": "function"
    },
    {
      "inputs": [
        {
          "internalType": "address",
          "name": "owner",
          "type": "address"
        }
      ],
      "name": "balanceOf",
      "outputs": [
        {
          "internalType": "uint256",
          "name": "",
          "type": "uint256"
        }
      ],
      "stateMutability": "view",
      "type": "function"
    },
    {
      "inputs": [
        {
          "internalType": "uint256",
          "name": "tokenId",
          "type": "uint256"
        }
      ],
      "name": "getApproved",
      "outputs": [
        {
          "internalType": "address",
          "name": "",
          "type": "address"
        }
      ],
      "stateMutability": "view",
      "type": "function"
    },
    {
      "inputs": [
        {
          "internalType": "address",
          "name": "owner",
          "type": "address"
        },
        {
          "internalType": "address",
          "name": "operator",
          "type": "address"
        }
      ],
      "name": "isApprovedForAll",
      "outputs": [
        {
          "internalType": "bool",
          "name": "",
          "type": "bool"
        }
      ],
      "stateMutability": "view",
      "type": "function"
    },
    {
      "inputs": [
        {
          "internalType": "string",
          "name": "tokenURI",
          "type": "string"
        }
      ],
      "name": "mintNFT",
      "outputs": [
        {
          "internalType": "uint256",
          "name": "",
          "type": "uint256"
        }
      ],
      "stateMutability": "payable",
      "type": "function"
    },
    {
      "inputs": [],
      "name": "name",
      "outputs": [
        {
          "internalType": "string",
          "name": "",
          "type": "string"
        }
      ],
      "stateMutability": "view",
      "type": "function"
    },
    {
      "inputs": [],
      "name": "owner",
      "outputs": [
        {
          "internalType": "address",
          "name": "",
          "type": "address"
        }
      ],
      "stateMutability": "view",
      "type": "function"
    },
    {
      "inputs": [
        {
          "internalType": "uint256",
          "name": "tokenId",
          "type": "uint256"
        }
      ],
      "name": "ownerOf",
      "outputs": [
        {
          "internalType": "address",
          "name": "",
          "type": "address"
        }
      ],
      "stateMutability": "view",
      "type": "function"
    },
    {
      "inputs": [],
      "name": "renounceOwnership",
      "outputs": [],
      "stateMutability": "nonpayable",
      "type": "function"
    },
    {
      "inputs": [
        {
          "internalType": "address",
          "name": "from",
          "type": "address"
        },
        {
          "internalType": "address",
          "name": "to",
          "type": "address"
        },
        {
          "internalType": "uint256",
          "name": "tokenId",
          "type": "uint256"
        }
      ],
      "name": "safeTransferFrom",
      "outputs": [],
      "stateMutability": "nonpayable",
      "type": "function"
    },
    {
      "inputs": [
        {
          "internalType": "address",
          "name": "from",
          "type": "address"
        },
        {
          "internalType": "address",
          "name": "to",
          "type": "address"
        },
        {
          "internalType": "uint256",
          "name": "tokenId",
          "type": "uint256"
        },
        {
          "internalType": "bytes",
          "name": "data",
          "type": "bytes"
        }
      ],
      "name": "safeTransferFrom",
      "outputs": [],
      "stateMutability": "nonpayable",
      "type": "function"
    },
    {
      "inputs": [
        {
          "internalType": "address",
          "name": "operator",
          "type": "address"
        },
        {
          "internalType": "bool",
          "name": "approved",
          "type": "bool"
        }
      ],
      "name": "setApprovalForAll",
      "outputs": [],
      "stateMutability": "nonpayable",
      "type": "function"
    },
    {
      "inputs": [
        {
          "internalType": "uint256",
          "name": "limit",
          "type": "uint256"
        }
      ],
      "name": "setLimit",
      "outputs": [],
      "stateMutability": "nonpayable",
      "type": "function"
    },
    {
      "inputs": [
        {
          "internalType": "uint256",
          "name": "supply",
          "type": "uint256"
        }
      ],
      "name": "setMaxSupply",
      "outputs": [],
      "stateMutability": "nonpayable",
      "type": "function"
    },
    {
      "inputs": [
        {
          "internalType": "uint256",
          "name": "price",
          "type": "uint256"
        }
      ],
      "name": "setPrice",
      "outputs": [],
      "stateMutability": "nonpayable",
      "type": "function"
    },
    {
      "inputs": [
        {
          "internalType": "bytes4",
          "name": "interfaceId",
          "type": "bytes4"
        }
      ],
      "name": "supportsInterface",
      "outputs": [
        {
          "internalType": "bool",
          "name": "",
          "type": "bool"
        }
      ],
      "stateMutability": "view",
      "type": "function"
    },
    {
      "inputs": [],
      "name": "symbol",
      "outputs": [
        {
          "internalType": "string",
          "name": "",
          "type": "string"
        }
      ],
      "stateMutability": "view",
      "type": "function"
    },
    {
      "inputs": [
        {
          "internalType": "uint256",
          "name": "tokenId",
          "type": "uint256"
        }
      ],
      "name": "tokenURI",
      "outputs": [
        {
          "internalType": "string",
          "name": "",
          "type": "string"
        }
      ],
      "stateMutability": "view",
      "type": "function"
    },
    {
      "inputs": [
        {
          "internalType": "address",
          "name": "from",
          "type": "address"
        },
        {
          "internalType": "address",
          "name": "to",
          "type": "address"
        },
        {
          "internalType": "uint256",
          "name": "tokenId",
          "type": "uint256"
        }
      ],
      "name": "transferFrom",
      "outputs": [],
      "stateMutability": "nonpayable",
      "type": "function"
    },
    {
      "inputs": [
        {
          "internalType": "address",
          "name": "newOwner",
          "type": "address"
        }
      ],
      "name": "transferOwnership",
      "outputs": [],
      "stateMutability": "nonpayable",
      "type": "function"
    },
    {
      "inputs": [],
      "name": "withDrawMoney",
      "outputs": [],
      "stateMutability": "nonpayable",
      "type": "function"
    }
  ],
  "bytecode": "0x6080604052655af3107a4000600a556003600b556103e8600c553480156200002657600080fd5b506040518060400160405280600881526020017f4e46545f444150500000000000000000000000000000000000000000000000008152506040518060400160405280600381526020017f4e465400000000000000000000000000000000000000000000000000000000008152508160009081620000a4919062000427565b508060019081620000b6919062000427565b505050620000d9620000cd620000df60201b60201c565b620000e760201b60201c565b6200050e565b600033905090565b6000600760009054906101000a900473ffffffffffffffffffffffffffffffffffffffff16905081600760006101000a81548173ffffffffffffffffffffffffffffffffffffffff021916908373ffffffffffffffffffffffffffffffffffffffff1602179055508173ffffffffffffffffffffffffffffffffffffffff168173ffffffffffffffffffffffffffffffffffffffff167f8be0079c531659141344cd1fd0a4f28419497f9722a3daafe3b4186f6b6457e060405160405180910390a35050565b600081519050919050565b7f4e487b7100000000000000000000000000000000000000000000000000000000600052604160045260246000fd5b7f4e487b7100000000000000000000000000000000000000000000000000000000600052602260045260246000fd5b600060028204905060018216806200022f57607f821691505b602082108103620002455762000244620001e7565b5b50919050565b60008190508160005260206000209050919050565b60006020601f8301049050919050565b600082821b905092915050565b600060088302620002af7fffffffffffffffffffffffffffffffffffffffffffffffffffffffffffffffff8262000270565b620002bb868362000270565b95508019841693508086168417925050509392505050565b6000819050919050565b6000819050919050565b60006200030862000302620002fc84620002d3565b620002dd565b620002d3565b9050919050565b6000819050919050565b6200032483620002e7565b6200033c62000333826200030f565b8484546200027d565b825550505050565b600090565b6200035362000344565b6200036081848462000319565b505050565b5b8181101562000388576200037c60008262000349565b60018101905062000366565b5050565b601f821115620003d757620003a1816200024b565b620003ac8462000260565b81016020851015620003bc578190505b620003d4620003cb8562000260565b83018262000365565b50505b505050565b600082821c905092915050565b6000620003fc60001984600802620003dc565b1980831691505092915050565b6000620004178383620003e9565b9150826002028217905092915050565b6200043282620001ad565b67ffffffffffffffff8111156200044e576200044d620001b8565b5b6200045a825462000216565b620004678282856200038c565b600060209050601f8311600181146200049f57600084156200048a578287015190505b62000496858262000409565b86555062000506565b601f198416620004af866200024b565b60005b82811015620004d957848901518255600182019150602085019450602081019050620004b2565b86831015620004f95784890151620004f5601f891682620003e9565b8355505b6001600288020188555050505b505050505050565b613600806200051e6000396000f3fe60806040526004361061014b5760003560e01c806370a08231116100b6578063a22cb4651161006f578063a22cb4651461046a578063b88d4fde14610493578063c87b56dd146104bc578063e985e9c5146104f9578063f2fde38b14610536578063fb37e8831461055f5761014b565b806370a082311461036c578063715018a6146103a9578063833b9499146103c05780638da5cb5b146103eb57806391b7f5ed1461041657806395d89b411461043f5761014b565b806327ea6f2b1161010857806327ea6f2b1461025e57806332cb6b0c14610287578063417bac1a146102b257806342842e0e146102dd5780636352211e146103065780636f8b44b0146103435761014b565b806301ffc9a71461015057806306fdde031461018d578063081812fc146101b8578063095ea7b3146101f5578063176e5f321461021e57806323b872dd14610235575b600080fd5b34801561015c57600080fd5b506101776004803603810190610172919061214c565b61058f565b6040516101849190612194565b60405180910390f35b34801561019957600080fd5b506101a26105f0565b6040516101af919061223f565b60405180910390f35b3480156101c457600080fd5b506101df60048036038101906101da9190612297565b610682565b6040516101ec9190612305565b60405180910390f35b34801561020157600080fd5b5061021c6004803603810190610217919061234c565b6106c8565b005b34801561022a57600080fd5b506102336107df565b005b34801561024157600080fd5b5061025c6004803603810190610257919061238c565b610836565b005b34801561026a57600080fd5b5061028560048036038101906102809190612297565b610896565b005b34801561029357600080fd5b5061029c6108a8565b6040516102a991906123ee565b60405180910390f35b3480156102be57600080fd5b506102c76108ae565b6040516102d491906123ee565b60405180910390f35b3480156102e957600080fd5b5061030460048036038101906102ff919061238c565b6108b4565b005b34801561031257600080fd5b5061032d60048036038101906103289190612297565b6108d4565b60405161033a9190612305565b60405180910390f35b34801561034f57600080fd5b5061036a60048036038101906103659190612297565b61095a565b005b34801561037857600080fd5b50610393600480360381019061038e9190612409565b61096c565b6040516103a091906123ee565b60405180910390f35b3480156103b557600080fd5b506103be610a23565b005b3480156103cc57600080fd5b506103d5610a37565b6040516103e291906123ee565b60405180910390f35b3480156103f757600080fd5b50610400610a3d565b60405161040d9190612305565b60405180910390f35b34801561042257600080fd5b5061043d60048036038101906104389190612297565b610a67565b005b34801561044b57600080fd5b50610454610a79565b604051610461919061223f565b60405180910390f35b34801561047657600080fd5b50610491600480360381019061048c9190612462565b610b0b565b005b34801561049f57600080fd5b506104ba60048036038101906104b591906125d7565b610b21565b005b3480156104c857600080fd5b506104e360048036038101906104de9190612297565b610b83565b6040516104f0919061223f565b60405180910390f35b34801561050557600080fd5b50610520600480360381019061051b919061265a565b610c95565b60405161052d9190612194565b60405180910390f35b34801561054257600080fd5b5061055d60048036038101906105589190612409565b610d29565b005b6105796004803603810190610574919061273b565b610dac565b60405161058691906123ee565b60405180910390f35b6000634906490660e01b7bffffffffffffffffffffffffffffffffffffffffffffffffffffffff1916827bffffffffffffffffffffffffffffffffffffffffffffffffffffffff191614806105e957506105e882611035565b5b9050919050565b6060600080546105ff906127b3565b80601f016020809104026020016040519081016040528092919081815260200182805461062b906127b3565b80156106785780601f1061064d57610100808354040283529160200191610678565b820191906000526020600020905b81548152906001019060200180831161065b57829003601f168201915b5050505050905090565b600061068d82611117565b6004600083815260200190815260200160002060009054906101000a900473ffffffffffffffffffffffffffffffffffffffff169050919050565b60006106d3826108d4565b90508073ffffffffffffffffffffffffffffffffffffffff168373ffffffffffffffffffffffffffffffffffffffff1603610743576040517f08c379a000000000000000000000000000000000000000000000000000000000815260040161073a90612856565b60405180910390fd5b8073ffffffffffffffffffffffffffffffffffffffff16610762611162565b73ffffffffffffffffffffffffffffffffffffffff16148061079157506107908161078b611162565b610c95565b5b6107d0576040517f08c379a00000000000000000000000000000000000000000000000000000000081526004016107c7906128e8565b60405180910390fd5b6107da838361116a565b505050565b6107e7611223565b60003390508073ffffffffffffffffffffffffffffffffffffffff166108fc479081150290604051600060405180830381858888f19350505050158015610832573d6000803e3d6000fd5b5050565b610847610841611162565b826112a1565b610886576040517f08c379a000000000000000000000000000000000000000000000000000000000815260040161087d9061297a565b60405180910390fd5b610891838383611336565b505050565b61089e611223565b80600b8190555050565b600c5481565b600b5481565b6108cf83838360405180602001604052806000815250610b21565b505050565b6000806108e08361162f565b9050600073ffffffffffffffffffffffffffffffffffffffff168173ffffffffffffffffffffffffffffffffffffffff1603610951576040517f08c379a0000000000000000000000000000000000000000000000000000000008152600401610948906129e6565b60405180910390fd5b80915050919050565b610962611223565b80600c8190555050565b60008073ffffffffffffffffffffffffffffffffffffffff168273ffffffffffffffffffffffffffffffffffffffff16036109dc576040517f08c379a00000000000000000000000000000000000000000000000000000000081526004016109d390612a78565b60405180910390fd5b600360008373ffffffffffffffffffffffffffffffffffffffff1673ffffffffffffffffffffffffffffffffffffffff168152602001908152602001600020549050919050565b610a2b611223565b610a35600061166c565b565b600a5481565b6000600760009054906101000a900473ffffffffffffffffffffffffffffffffffffffff16905090565b610a6f611223565b80600a8190555050565b606060018054610a88906127b3565b80601f0160208091040260200160405190810160405280929190818152602001828054610ab4906127b3565b8015610b015780601f10610ad657610100808354040283529160200191610b01565b820191906000526020600020905b815481529060010190602001808311610ae457829003601f168201915b5050505050905090565b610b1d610b16611162565b8383611732565b5050565b610b32610b2c611162565b836112a1565b610b71576040517f08c379a0000000000000000000000000000000000000000000000000000000008152600401610b689061297a565b60405180910390fd5b610b7d8484848461189e565b50505050565b6060610b8e82611117565b6000600660008481526020019081526020016000208054610bae906127b3565b80601f0160208091040260200160405190810160405280929190818152602001828054610bda906127b3565b8015610c275780601f10610bfc57610100808354040283529160200191610c27565b820191906000526020600020905b815481529060010190602001808311610c0a57829003601f168201915b505050505090506000610c386118fa565b90506000815103610c4d578192505050610c90565b600082511115610c82578082604051602001610c6a929190612ad4565b60405160208183030381529060405292505050610c90565b610c8b84611911565b925050505b919050565b6000600560008473ffffffffffffffffffffffffffffffffffffffff1673ffffffffffffffffffffffffffffffffffffffff16815260200190815260200160002060008373ffffffffffffffffffffffffffffffffffffffff1673ffffffffffffffffffffffffffffffffffffffff16815260200190815260200160002060009054906101000a900460ff16905092915050565b610d31611223565b600073ffffffffffffffffffffffffffffffffffffffff168173ffffffffffffffffffffffffffffffffffffffff1603610da0576040517f08c379a0000000000000000000000000000000000000000000000000000000008152600401610d9790612b6a565b60405180910390fd5b610da98161166c565b50565b600034600a541115610df3576040517f08c379a0000000000000000000000000000000000000000000000000000000008152600401610dea90612bfc565b60405180910390fd5b600b54600d60003373ffffffffffffffffffffffffffffffffffffffff1673ffffffffffffffffffffffffffffffffffffffff16815260200190815260200160002060009054906101000a900460ff1660ff1610610e86576040517f08c379a0000000000000000000000000000000000000000000000000000000008152600401610e7d90612c8e565b60405180910390fd5b600c546001610e956009611979565b610e9f9190612cdd565b1115610ee0576040517f08c379a0000000000000000000000000000000000000000000000000000000008152600401610ed790612d5d565b60405180910390fd5b600e82604051610ef09190612d7d565b908152602001604051809103902060009054906101000a900460ff16610f4b576040517f08c379a0000000000000000000000000000000000000000000000000000000008152600401610f4290612de0565b60405180910390fd5b6001600e83604051610f5d9190612d7d565b908152602001604051809103902060006101000a81548160ff0219169083151502179055506001600d60003373ffffffffffffffffffffffffffffffffffffffff1673ffffffffffffffffffffffffffffffffffffffff16815260200190815260200160002060008282829054906101000a900460ff16610fde9190612e0d565b92506101000a81548160ff021916908360ff1602179055506110006008611987565b61100a6009611987565b60006110166008611979565b9050611022338261199d565b61102c8184611bba565b80915050919050565b60007f80ac58cd000000000000000000000000000000000000000000000000000000007bffffffffffffffffffffffffffffffffffffffffffffffffffffffff1916827bffffffffffffffffffffffffffffffffffffffffffffffffffffffff1916148061110057507f5b5e139f000000000000000000000000000000000000000000000000000000007bffffffffffffffffffffffffffffffffffffffffffffffffffffffff1916827bffffffffffffffffffffffffffffffffffffffffffffffffffffffff1916145b80611110575061110f82611c5e565b5b9050919050565b61112081611cc8565b61115f576040517f08c379a0000000000000000000000000000000000000000000000000000000008152600401611156906129e6565b60405180910390fd5b50565b600033905090565b816004600083815260200190815260200160002060006101000a81548173ffffffffffffffffffffffffffffffffffffffff021916908373ffffffffffffffffffffffffffffffffffffffff160217905550808273ffffffffffffffffffffffffffffffffffffffff166111dd836108d4565b73ffffffffffffffffffffffffffffffffffffffff167f8c5be1e5ebec7d5bd14f71427d1e84f3dd0314c0f7b2291e5b200ac8c7c3b92560405160405180910390a45050565b61122b611162565b73ffffffffffffffffffffffffffffffffffffffff16611249610a3d565b73ffffffffffffffffffffffffffffffffffffffff161461129f576040517f08c379a000000000000000000000000000000000000000000000000000000000815260040161129690612e8e565b60405180910390fd5b565b6000806112ad836108d4565b90508073ffffffffffffffffffffffffffffffffffffffff168473ffffffffffffffffffffffffffffffffffffffff1614806112ef57506112ee8185610c95565b5b8061132d57508373ffffffffffffffffffffffffffffffffffffffff1661131584610682565b73ffffffffffffffffffffffffffffffffffffffff16145b91505092915050565b8273ffffffffffffffffffffffffffffffffffffffff16611356826108d4565b73ffffffffffffffffffffffffffffffffffffffff16146113ac576040517f08c379a00000000000000000000000000000000000000000000000000000000081526004016113a390612f20565b60405180910390fd5b600073ffffffffffffffffffffffffffffffffffffffff168273ffffffffffffffffffffffffffffffffffffffff160361141b576040517f08c379a000000000000000000000000000000000000000000000000000000000815260040161141290612fb2565b60405180910390fd5b6114288383836001611d09565b8273ffffffffffffffffffffffffffffffffffffffff16611448826108d4565b73ffffffffffffffffffffffffffffffffffffffff161461149e576040517f08c379a000000000000000000000000000000000000000000000000000000000815260040161149590612f20565b60405180910390fd5b6004600082815260200190815260200160002060006101000a81549073ffffffffffffffffffffffffffffffffffffffff02191690556001600360008573ffffffffffffffffffffffffffffffffffffffff1673ffffffffffffffffffffffffffffffffffffffff168152602001908152602001600020600082825403925050819055506001600360008473ffffffffffffffffffffffffffffffffffffffff1673ffffffffffffffffffffffffffffffffffffffff16815260200190815260200160002060008282540192505081905550816002600083815260200190815260200160002060006101000a81548173ffffffffffffffffffffffffffffffffffffffff021916908373ffffffffffffffffffffffffffffffffffffffff160217905550808273ffffffffffffffffffffffffffffffffffffffff168473ffffffffffffffffffffffffffffffffffffffff167fddf252ad1be2c89b69c2b068fc378daa952ba7f163c4a11628f55a4df523b3ef60405160405180910390a461162a8383836001611d0f565b505050565b60006002600083815260200190815260200160002060009054906101000a900473ffffffffffffffffffffffffffffffffffffffff169050919050565b6000600760009054906101000a900473ffffffffffffffffffffffffffffffffffffffff16905081600760006101000a81548173ffffffffffffffffffffffffffffffffffffffff021916908373ffffffffffffffffffffffffffffffffffffffff1602179055508173ffffffffffffffffffffffffffffffffffffffff168173ffffffffffffffffffffffffffffffffffffffff167f8be0079c531659141344cd1fd0a4f28419497f9722a3daafe3b4186f6b6457e060405160405180910390a35050565b8173ffffffffffffffffffffffffffffffffffffffff168373ffffffffffffffffffffffffffffffffffffffff16036117a0576040517f08c379a00000000000000000000000000000000000000000000000000000000081526004016117979061301e565b60405180910390fd5b80600560008573ffffffffffffffffffffffffffffffffffffffff1673ffffffffffffffffffffffffffffffffffffffff16815260200190815260200160002060008473ffffffffffffffffffffffffffffffffffffffff1673ffffffffffffffffffffffffffffffffffffffff16815260200190815260200160002060006101000a81548160ff0219169083151502179055508173ffffffffffffffffffffffffffffffffffffffff168373ffffffffffffffffffffffffffffffffffffffff167f17307eab39ab6107e8899845ad3d59bd9653f200f220920489ca2b5937696c31836040516118919190612194565b60405180910390a3505050565b6118a9848484611336565b6118b584848484611d15565b6118f4576040517f08c379a00000000000000000000000000000000000000000000000000000000081526004016118eb906130b0565b60405180910390fd5b50505050565b606060405180602001604052806000815250905090565b606061191c82611117565b60006119266118fa565b905060008151116119465760405180602001604052806000815250611971565b8061195084611e9c565b604051602001611961929190612ad4565b6040516020818303038152906040525b915050919050565b600081600001549050919050565b6001816000016000828254019250508190555050565b600073ffffffffffffffffffffffffffffffffffffffff168273ffffffffffffffffffffffffffffffffffffffff1603611a0c576040517f08c379a0000000000000000000000000000000000000000000000000000000008152600401611a039061311c565b60405180910390fd5b611a1581611cc8565b15611a55576040517f08c379a0000000000000000000000000000000000000000000000000000000008152600401611a4c90613188565b60405180910390fd5b611a63600083836001611d09565b611a6c81611cc8565b15611aac576040517f08c379a0000000000000000000000000000000000000000000000000000000008152600401611aa390613188565b60405180910390fd5b6001600360008473ffffffffffffffffffffffffffffffffffffffff1673ffffffffffffffffffffffffffffffffffffffff16815260200190815260200160002060008282540192505081905550816002600083815260200190815260200160002060006101000a81548173ffffffffffffffffffffffffffffffffffffffff021916908373ffffffffffffffffffffffffffffffffffffffff160217905550808273ffffffffffffffffffffffffffffffffffffffff16600073ffffffffffffffffffffffffffffffffffffffff167fddf252ad1be2c89b69c2b068fc378daa952ba7f163c4a11628f55a4df523b3ef60405160405180910390a4611bb6600083836001611d0f565b5050565b611bc382611cc8565b611c02576040517f08c379a0000000000000000000000000000000000000000000000000000000008152600401611bf99061321a565b60405180910390fd5b80600660008481526020019081526020016000209081611c2291906133e6565b507ff8e1a15aba9398e019f0b49df1a4fde98ee17ae345cb5f6b5e2c27f5033e8ce782604051611c5291906123ee565b60405180910390a15050565b60007f01ffc9a7000000000000000000000000000000000000000000000000000000007bffffffffffffffffffffffffffffffffffffffffffffffffffffffff1916827bffffffffffffffffffffffffffffffffffffffffffffffffffffffff1916149050919050565b60008073ffffffffffffffffffffffffffffffffffffffff16611cea8361162f565b73ffffffffffffffffffffffffffffffffffffffff1614159050919050565b50505050565b50505050565b6000611d368473ffffffffffffffffffffffffffffffffffffffff16611f6a565b15611e8f578373ffffffffffffffffffffffffffffffffffffffff1663150b7a02611d5f611162565b8786866040518563ffffffff1660e01b8152600401611d81949392919061350d565b6020604051808303816000875af1925050508015611dbd57506040513d601f19601f82011682018060405250810190611dba919061356e565b60015b611e3f573d8060008114611ded576040519150601f19603f3d011682016040523d82523d6000602084013e611df2565b606091505b506000815103611e37576040517f08c379a0000000000000000000000000000000000000000000000000000000008152600401611e2e906130b0565b60405180910390fd5b805181602001fd5b63150b7a0260e01b7bffffffffffffffffffffffffffffffffffffffffffffffffffffffff1916817bffffffffffffffffffffffffffffffffffffffffffffffffffffffff191614915050611e94565b600190505b949350505050565b606060006001611eab84611f8d565b01905060008167ffffffffffffffff811115611eca57611ec96124ac565b5b6040519080825280601f01601f191660200182016040528015611efc5781602001600182028036833780820191505090505b509050600082602001820190505b600115611f5f578080600190039150507f3031323334353637383961626364656600000000000000000000000000000000600a86061a8153600a8581611f5357611f5261359b565b5b04945060008503611f0a575b819350505050919050565b6000808273ffffffffffffffffffffffffffffffffffffffff163b119050919050565b600080600090507a184f03e93ff9f4daa797ed6e38ed64bf6a1f0100000000000000008310611feb577a184f03e93ff9f4daa797ed6e38ed64bf6a1f0100000000000000008381611fe157611fe061359b565b5b0492506040810190505b6d04ee2d6d415b85acef81000000008310612028576d04ee2d6d415b85acef8100000000838161201e5761201d61359b565b5b0492506020810190505b662386f26fc10000831061205757662386f26fc10000838161204d5761204c61359b565b5b0492506010810190505b6305f5e1008310612080576305f5e10083816120765761207561359b565b5b0492506008810190505b61271083106120a557612710838161209b5761209a61359b565b5b0492506004810190505b606483106120c857606483816120be576120bd61359b565b5b0492506002810190505b600a83106120d7576001810190505b80915050919050565b6000604051905090565b600080fd5b600080fd5b60007fffffffff0000000000000000000000000000000000000000000000000000000082169050919050565b612129816120f4565b811461213457600080fd5b50565b60008135905061214681612120565b92915050565b600060208284031215612162576121616120ea565b5b600061217084828501612137565b91505092915050565b60008115159050919050565b61218e81612179565b82525050565b60006020820190506121a96000830184612185565b92915050565b600081519050919050565b600082825260208201905092915050565b60005b838110156121e95780820151818401526020810190506121ce565b60008484015250505050565b6000601f19601f8301169050919050565b6000612211826121af565b61221b81856121ba565b935061222b8185602086016121cb565b612234816121f5565b840191505092915050565b600060208201905081810360008301526122598184612206565b905092915050565b6000819050919050565b61227481612261565b811461227f57600080fd5b50565b6000813590506122918161226b565b92915050565b6000602082840312156122ad576122ac6120ea565b5b60006122bb84828501612282565b91505092915050565b600073ffffffffffffffffffffffffffffffffffffffff82169050919050565b60006122ef826122c4565b9050919050565b6122ff816122e4565b82525050565b600060208201905061231a60008301846122f6565b92915050565b612329816122e4565b811461233457600080fd5b50565b60008135905061234681612320565b92915050565b60008060408385031215612363576123626120ea565b5b600061237185828601612337565b925050602061238285828601612282565b9150509250929050565b6000806000606084860312156123a5576123a46120ea565b5b60006123b386828701612337565b93505060206123c486828701612337565b92505060406123d586828701612282565b9150509250925092565b6123e881612261565b82525050565b600060208201905061240360008301846123df565b92915050565b60006020828403121561241f5761241e6120ea565b5b600061242d84828501612337565b91505092915050565b61243f81612179565b811461244a57600080fd5b50565b60008135905061245c81612436565b92915050565b60008060408385031215612479576124786120ea565b5b600061248785828601612337565b92505060206124988582860161244d565b9150509250929050565b600080fd5b600080fd5b7f4e487b7100000000000000000000000000000000000000000000000000000000600052604160045260246000fd5b6124e4826121f5565b810181811067ffffffffffffffff82111715612503576125026124ac565b5b80604052505050565b60006125166120e0565b905061252282826124db565b919050565b600067ffffffffffffffff821115612542576125416124ac565b5b61254b826121f5565b9050602081019050919050565b82818337600083830152505050565b600061257a61257584612527565b61250c565b905082815260208101848484011115612596576125956124a7565b5b6125a1848285612558565b509392505050565b600082601f8301126125be576125bd6124a2565b5b81356125ce848260208601612567565b91505092915050565b600080600080608085870312156125f1576125f06120ea565b5b60006125ff87828801612337565b945050602061261087828801612337565b935050604061262187828801612282565b925050606085013567ffffffffffffffff811115612642576126416120ef565b5b61264e878288016125a9565b91505092959194509250565b60008060408385031215612671576126706120ea565b5b600061267f85828601612337565b925050602061269085828601612337565b9150509250929050565b600067ffffffffffffffff8211156126b5576126b46124ac565b5b6126be826121f5565b9050602081019050919050565b60006126de6126d98461269a565b61250c565b9050828152602081018484840111156126fa576126f96124a7565b5b612705848285612558565b509392505050565b600082601f830112612722576127216124a2565b5b81356127328482602086016126cb565b91505092915050565b600060208284031215612751576127506120ea565b5b600082013567ffffffffffffffff81111561276f5761276e6120ef565b5b61277b8482850161270d565b91505092915050565b7f4e487b7100000000000000000000000000000000000000000000000000000000600052602260045260246000fd5b600060028204905060018216806127cb57607f821691505b6020821081036127de576127dd612784565b5b50919050565b7f4552433732313a20617070726f76616c20746f2063757272656e74206f776e6560008201527f7200000000000000000000000000000000000000000000000000000000000000602082015250565b60006128406021836121ba565b915061284b826127e4565b604082019050919050565b6000602082019050818103600083015261286f81612833565b9050919050565b7f4552433732313a20617070726f76652063616c6c6572206973206e6f7420746f60008201527f6b656e206f776e6572206f7220617070726f76656420666f7220616c6c000000602082015250565b60006128d2603d836121ba565b91506128dd82612876565b604082019050919050565b60006020820190508181036000830152612901816128c5565b9050919050565b7f4552433732313a2063616c6c6572206973206e6f7420746f6b656e206f776e6560008201527f72206f7220617070726f76656400000000000000000000000000000000000000602082015250565b6000612964602d836121ba565b915061296f82612908565b604082019050919050565b6000602082019050818103600083015261299381612957565b9050919050565b7f4552433732313a20696e76616c696420746f6b656e2049440000000000000000600082015250565b60006129d06018836121ba565b91506129db8261299a565b602082019050919050565b600060208201905081810360008301526129ff816129c3565b9050919050565b7f4552433732313a2061646472657373207a65726f206973206e6f74206120766160008201527f6c6964206f776e65720000000000000000000000000000000000000000000000602082015250565b6000612a626029836121ba565b9150612a6d82612a06565b604082019050919050565b60006020820190508181036000830152612a9181612a55565b9050919050565b600081905092915050565b6000612aae826121af565b612ab88185612a98565b9350612ac88185602086016121cb565b80840191505092915050565b6000612ae08285612aa3565b9150612aec8284612aa3565b91508190509392505050565b7f4f776e61626c653a206e6577206f776e657220697320746865207a65726f206160008201527f6464726573730000000000000000000000000000000000000000000000000000602082015250565b6000612b546026836121ba565b9150612b5f82612af8565b604082019050919050565b60006020820190508181036000830152612b8381612b47565b9050919050565b7f526571756972656420616d6f756e7420666f72206d696e74696e67206d75737460008201527f2062652070616964000000000000000000000000000000000000000000000000602082015250565b6000612be66028836121ba565b9150612bf182612b8a565b604082019050919050565b60006020820190508181036000830152612c1581612bd9565b9050919050565b7f596f75206861766520657863656564656420746865206d696e74696e67206c6960008201527f6d697420666f72204e4654000000000000000000000000000000000000000000602082015250565b6000612c78602b836121ba565b9150612c8382612c1c565b604082019050919050565b60006020820190508181036000830152612ca781612c6b565b9050919050565b7f4e487b7100000000000000000000000000000000000000000000000000000000600052601160045260246000fd5b6000612ce882612261565b9150612cf383612261565b9250828201905080821115612d0b57612d0a612cae565b5b92915050565b7f596f7520686176652065786365656465642074686520737570706c7900000000600082015250565b6000612d47601c836121ba565b9150612d5282612d11565b602082019050919050565b60006020820190508181036000830152612d7681612d3a565b9050919050565b6000612d898284612aa3565b915081905092915050565b7f54686973204e46542068617320616c7265616479206265656e206d696e746564600082015250565b6000612dca6020836121ba565b9150612dd582612d94565b602082019050919050565b60006020820190508181036000830152612df981612dbd565b9050919050565b600060ff82169050919050565b6000612e1882612e00565b9150612e2383612e00565b9250828201905060ff811115612e3c57612e3b612cae565b5b92915050565b7f4f776e61626c653a2063616c6c6572206973206e6f7420746865206f776e6572600082015250565b6000612e786020836121ba565b9150612e8382612e42565b602082019050919050565b60006020820190508181036000830152612ea781612e6b565b9050919050565b7f4552433732313a207472616e736665722066726f6d20696e636f72726563742060008201527f6f776e6572000000000000000000000000000000000000000000000000000000602082015250565b6000612f0a6025836121ba565b9150612f1582612eae565b604082019050919050565b60006020820190508181036000830152612f3981612efd565b9050919050565b7f4552433732313a207472616e7366657220746f20746865207a65726f2061646460008201527f7265737300000000000000000000000000000000000000000000000000000000602082015250565b6000612f9c6024836121ba565b9150612fa782612f40565b604082019050919050565b60006020820190508181036000830152612fcb81612f8f565b9050919050565b7f4552433732313a20617070726f766520746f2063616c6c657200000000000000600082015250565b60006130086019836121ba565b915061301382612fd2565b602082019050919050565b6000602082019050818103600083015261303781612ffb565b9050919050565b7f4552433732313a207472616e7366657220746f206e6f6e20455243373231526560008201527f63656976657220696d706c656d656e7465720000000000000000000000000000602082015250565b600061309a6032836121ba565b91506130a58261303e565b604082019050919050565b600060208201905081810360008301526130c98161308d565b9050919050565b7f4552433732313a206d696e7420746f20746865207a65726f2061646472657373600082015250565b60006131066020836121ba565b9150613111826130d0565b602082019050919050565b60006020820190508181036000830152613135816130f9565b9050919050565b7f4552433732313a20746f6b656e20616c7265616479206d696e74656400000000600082015250565b6000613172601c836121ba565b915061317d8261313c565b602082019050919050565b600060208201905081810360008301526131a181613165565b9050919050565b7f45524337323155524953746f726167653a2055524920736574206f66206e6f6e60008201527f6578697374656e7420746f6b656e000000000000000000000000000000000000602082015250565b6000613204602e836121ba565b915061320f826131a8565b604082019050919050565b60006020820190508181036000830152613233816131f7565b9050919050565b60008190508160005260206000209050919050565b60006020601f8301049050919050565b600082821b905092915050565b60006008830261329c7fffffffffffffffffffffffffffffffffffffffffffffffffffffffffffffffff8261325f565b6132a6868361325f565b95508019841693508086168417925050509392505050565b6000819050919050565b60006132e36132de6132d984612261565b6132be565b612261565b9050919050565b6000819050919050565b6132fd836132c8565b613311613309826132ea565b84845461326c565b825550505050565b600090565b613326613319565b6133318184846132f4565b505050565b5b818110156133555761334a60008261331e565b600181019050613337565b5050565b601f82111561339a5761336b8161323a565b6133748461324f565b81016020851015613383578190505b61339761338f8561324f565b830182613336565b50505b505050565b600082821c905092915050565b60006133bd6000198460080261339f565b1980831691505092915050565b60006133d683836133ac565b9150826002028217905092915050565b6133ef826121af565b67ffffffffffffffff811115613408576134076124ac565b5b61341282546127b3565b61341d828285613359565b600060209050601f831160018114613450576000841561343e578287015190505b61344885826133ca565b8655506134b0565b601f19841661345e8661323a565b60005b8281101561348657848901518255600182019150602085019450602081019050613461565b868310156134a3578489015161349f601f8916826133ac565b8355505b6001600288020188555050505b505050505050565b600081519050919050565b600082825260208201905092915050565b60006134df826134b8565b6134e981856134c3565b93506134f98185602086016121cb565b613502816121f5565b840191505092915050565b600060808201905061352260008301876122f6565b61352f60208301866122f6565b61353c60408301856123df565b818103606083015261354e81846134d4565b905095945050505050565b60008151905061356881612120565b92915050565b600060208284031215613584576135836120ea565b5b600061359284828501613559565b91505092915050565b7f4e487b7100000000000000000000000000000000000000000000000000000000600052601260045260246000fdfea264697066735822122053ec3eed00668c4df6e92a7743af3d1e1a1f11b3c5c79f23e282d352afce130964736f6c63430008110033",
  "linkReferences": {},
  "deployedLinkReferences": {}
}